:020000040800F2
:10000000C00D002089010008E5010008E501000895
:10001000E5010008E5010008E50100080000000016
:10002000000000000000000000000000E5010008E2
:10003000E501000800000000E5010008E5010008F6
:10004000E5010008E5010008E5010008E5010008F8
:10005000E5010008E5010008E5010008E5010008E8
:10006000E5010008E5010008E5010008E5010008D8
:10007000E5010008E5010008E5010008E5010008C8
:10008000E5010008E5010008E5010008E5010008B8
:10009000E5010008E5010008E5010008E5010008A8
:1000A000E5010008E5010008E5010008E501000898
:1000B00099020008E5010008E5010008E5010008D3
:1000C000E5010008E5010008E5010008E501000878
:1000D000E5010008E5010008E5010008E501000868
:1000E000E5010008E5010008E5010008E501000858
:1000F000E5010008E5010008E5010008E501000848
:10010000E5010008E5010008E5010008E501000837
:10011000E5010008E5010008E5010008E501000827
:10012000E5010008E5010008E5010008E501000817
:10013000E5010008E5010008E5010008E501000807
:10014000E5010008E5010008E5010008E5010008F7
:10015000E5010008E5010008E5010008E5010008E7
:10016000E5010008E5010008E5010008E5010008D7
:10017000E5010008E5010008E5010008E5010008C7
:10018000E5010008E501000880B582B000AF104B22
:100190007B60104B3B6007E03B681A1D3A607A6851
:1001A000111D796012681A603B680B4A9342F3D3C1
:1001B0000A480B494FF000028842B8BF40F8042BB0
:1001C000FADB00F091FA00BF0837BD4680BD00BFE2
:1001D000283F0008000000204804002048040020B8
:1001E000BC05002080B400AFFEE7000080B483B0FF
:1001F00000AF0346FB71084997F907305B09FA79AC
:1002000002F01F02012000FA02F241F8232000BF91
:100210000C37BD4680BC704700E100E080B485B07B
:1002200000AF78600023FB6003E000BFFB68013390
:10023000FB60FA687B689A42F7DB00BF1437BD4663
:1002400080BC704780B584B000AF0121012000F070
:100250009BFC0023BB810023FB804FF4E163BB6068
:100260003123BB803B1D19464FF0804001F03EFD1D
:100270001C20FFF7BBFF012201214FF0804001F05D
:10028000BEFD01214FF0804001F09AFD00BF103704
:10029000BD4680BD000000002DE9F04385B004AFED
:1002A00001214FF0804001F0CDFD0346002B00F00E
:1002B000F381BB4801F0D6FAB94BB3F90020B94B32
:1002C0001A80B74BB3F90220B74B1A80B44BB3F97D
:1002D0000420B64B1A80B24BB3F90030184603F035
:1002E000CDFB03464FF08D41184603F0CFFC03468B
:1002F0001A46AF4B1A60AA4BB3F90230184603F006
:10030000BDFB03464FF08D41184603F0BFFC03468A
:100310001A46A84B1A60A24BB3F90430184603F0F2
:10032000ADFB03464FF08D41184603F0AFFC03468A
:100330001A46A14B1A609A4BB3F90630184603F0DF
:100340009DFB02469D4B1A60954BB3F90830184649
:1003500003F094FB02469A4B1A60914BB3F90A30B2
:10036000184603F08BFB0246964B1A60904B1B68B5
:10037000184602F075FF804689468E4B1B684FF089
:100380008041184601F010FF06468B4B1B684FF06A
:100390008041184601F008FF03461946304603F035
:1003A000B9FA0346184602F05BFF02460B461046B8
:1003B000194601F09BFE02460B464046494603F0B3
:1003C000CDF802460B461046194603F04DFA034697
:1003D000184601F071FD0346184602F041FF6CA378
:1003E000D3E9002303F0BAF802460B46104619463B
:1003F0004FF00002744B02F087FF02460B46104696
:10040000194603F031FA0246704B1A60694B1B68BB
:10041000184602F025FF80468946654B1B684FF061
:100420008041184601F0C0FE0646634B1B684FF042
:100430008041184601F0B8FE03461946304603F0E5
:1004400069FA0346184602F00BFF02460B461046B7
:10045000194601F04BFE02460B464046494603F062
:100460007DF802460B461046194603F0FDF9034697
:10047000184601F021FD0346184602F0F1FE44A3A0
:10048000D3E9002303F06AF802460B4610461946EA
:100490004FF000024C4B02F037FF02460B4610466D
:1004A000194603F0E1F90246494B1A60424B1B68BA
:1004B000184602F0D5FE804689463D4B1B684FF03A
:1004C0008041184601F070FE06463A4B1B684FF01B
:1004D0008041184601F068FE03461946304603F095
:1004E00019FA0346184602F0BBFE02460B461046B8
:1004F000194601F0FBFD02460B464046494603F013
:100500002DF802460B461046194603F0ADF9034696
:10051000184601F0D1FC0346184602F0A1FE1CA3C8
:10052000D3E9002303F01AF802460B461046194699
:100530004FF00002244B02F0E7FE02460B46104645
:10054000194603F091F90246224B1A601B4B1B68B7
:10055000184602F085FE10A3D3E9002302F0FEFF47
:1005600002460B461C49C1E90023154B1B6818467F
:1005700002F076FE08A3D3E9002302F0EFFF024663
:100580000B46144683F00045144BC3E9004527E0B1
:10059000182D4454FB210940000000000060604019
:1005A00000050020F00400203C0500206404002029
:1005B000400500206004002014050020DC04002019
:1005C000B80500201005002000806640E8040020E7
:1005D0000C050020F4040020F8040020E0040020B2
:1005E000354B1B68184602F03BFE2FA3D3E90023CE
:1005F00002F0B4FF03460C46304AC2E90034304BE7
:100600001B68184602F02CFE804689462D4BD3E924
:1006100000452D4B1B68184602F000FE24A3D3E9C9
:10062000002302F09BFF02460B46CDE90223CDE9F1
:10063000004542464B46254800F0CAFE03460C469C
:10064000234AC2E90034234B1B68184602F008FE17
:1006500080468946204BD3E900451B4B1B68184652
:1006600002F0DCFD12A3D3E9002302F077FF02467B
:100670000B46CDE90223CDE9004542464B461748DB
:1006800000F0A6FE03460C46154AC2E900340121DB
:100690004FF0804001F0FFFB00BF0437BD46BDE8CE
:1006A000F08300BFAFF300800000000000606040F6
:1006B0000000000080842E41100500205804002016
:1006C000E8040020F8040020000000204805002075
:1006D000200500200C050020E00400206804002014
:1006E0003005002000000000F0B583B000AF00230B
:1006F000FB7100F0F5FF01F0CFF900F0E0FF4FF4DF
:100700007A70FFF78BFD01F05BF80346FB71AE4892
:1007100001F0A8F8AC4BB3F90020AC4B1A80AA4BFF
:10072000B3F90220AA4B1A80A74BB3F90420A94BB6
:100730001A80A54BB3F90030184603F09FF9034621
:100740004FF08D41184603F0A1FA03461A46A24B1A
:100750001A609D4BB3F90230184603F08FF9034637
:100760004FF08D41184603F091FA03461A469B4B11
:100770001A60954BB3F90430184603F07FF903462D
:100780004FF08D41184603F081FA03461A46944B08
:100790001A60914B1B68184602F062FD04460D4634
:1007A0008E4B1B684FF08041184601F0FDFC064659
:1007B0008B4B1B684FF08041184601F0F5FC034657
:1007C0001946304603F0A6F80346184602F048FDE5
:1007D00002460B461046194601F088FC02460B46BD
:1007E0002046294602F0BAFE03460C46184621462A
:1007F00003F03AF80346184601F05EFB034618463C
:1008000002F02EFD6EA3D3E9002302F0A7FE0346FB
:100810000C46184621464FF00002724B02F074FD60
:1008200003460C461846214603F01EF802466E4B5E
:100830001A606A4B1B68184602F012FD04460D460A
:10084000654B1B684FF08041184601F0ADFC064631
:10085000634B1B684FF08041184601F0A5FC03462E
:100860001946304603F056F80346184602F0F8FCE5
:1008700002460B461046194601F038FC02460B466C
:100880002046294602F06AFE03460C4618462146D9
:1008900002F0EAFF0346184601F00EFB0346184635
:1008A00002F0DEFC46A3D3E9002302F057FE034624
:1008B0000C46184621464FF000024A4B02F024FD38
:1008C00003460C461846214602F0CEFF0246474B2F
:1008D0001A60434B1B68184602F0C2FC04460D46E2
:1008E0003D4B1B684FF08041184601F05DFC064609
:1008F0003A4B1B684FF08041184601F055FC034607
:100900001946304603F006F80346184602F0A8FCE4
:1009100002460B461046194601F0E8FB02460B461C
:100920002046294602F01AFE03460C461846214688
:1009300002F09AFF0346184601F0BEFA0346184635
:1009400002F08EFC1EA3D3E9002302F007FE03464B
:100950000C46184621464FF00002224B02F0D4FC10
:1009600003460C461846214602F07EFF0246204B05
:100970001A60204800F0B8FC1F4800F0B5FC1A4B84
:100980001B68184602F06CFC03460C461A462346C8
:10099000184800F084FE154B1B68184602F060FCF6
:1009A00003460C461A462346134800F078FE64209E
:1009B000FFF734FCFFF746FCFEE700BFAFF3008013
:1009C000182D4454FB21094000050020F0040020AC
:1009D0003C05002064040020400500206004002045
:1009E00014050020008066404C04002048040020CC
:1009F000D8040020480500206804002080B489B095
:100A000000AF78600023BB6100237B610023FB61A2
:100A100002233B610023FB600223BB60474B9B68C2
:100A200003F00C03BB61BB69042B07D0082B09D072
:100A3000002B3DD17B68424A1A603DE07B68414A09
:100A40001A6039E03D4B5B689B0D03F00103FB60CE
:100A50003A4B5B6803F03F03BB60FB68002B0CD094
:100A6000384ABB68B2FBF3F3344A52689209C2F3C6
:100A7000080202FB03F3FB610BE0314ABB68B2FBE7
:100A8000F3F32E4A52689209C2F3080202FB03F301
:100A9000FB612A4B5B681B0C03F0030301335B0013
:100AA0003B61FA693B69B2FBF3F27B681A6003E0D1
:100AB0007B68234A1A6000BF204B9B6803F0F00359
:100AC000BB61BB691B09BB611F4ABB6913441B782F
:100AD000DBB27B617B681A687B69DA407B685A60AD
:100AE000164B9B6803F4E053BB61BB699B0ABB6177
:100AF000154ABB6913441B78DBB27B617B685A687B
:100B00007B69DA407B689A600C4B9B6803F4604316
:100B1000BB61BB695B0BBB610B4ABB6913441B78B0
:100B2000DBB27B617B685A687B69DA407B68DA609C
:100B300000BF2437BD4680BC704700BF003802406C
:100B40000024F40040787D010400002080B483B0CC
:100B500000AF78600B46FB70FB78002B06D009498C
:100B6000084B1A6B7B6813430B6306E00549054B82
:100B70001A6B7B68DB4313400B6300BF0C37BD4629
:100B800080BC70470038024080B483B000AF78600A
:100B90000B46FB70FB78002B06D00949084B1A6CFA
:100BA0007B6813430B6406E00549054B1A6C7B68B0
:100BB000DB4313400B6400BF0C37BD4680BC70475D
:100BC0000038024080B483B000AF78600B46FB7001
:100BD000FB78002B06D00949084B1A697B68134340
:100BE0000B6106E00549054B1A697B68DB4313403E
:100BF0000B6100BF0C37BD4680BC70470038024017
:100C000080B582B000AF78607B683C4A934208D1DF
:100C100001210120FFF7D6FF00210120FFF7D2FFBD
:100C200068E07B68364A934208D101210220FFF731
:100C3000C9FF00210220FFF7C5FF5BE07B68314A56
:100C4000934208D101210420FFF7BCFF00210420BA
:100C5000FFF7B8FF4EE07B682B4A934208D1012191
:100C60000820FFF7AFFF00210820FFF7ABFF41E0AE
:100C70007B68264A934208D101211020FFF7A2FF8A
:100C800000211020FFF79EFF34E07B68204A93424A
:100C900008D101212020FFF795FF00212020FFF738
:100CA00091FF27E07B681B4A934208D10121402035
:100CB000FFF788FF00214020FFF784FF1AE07B68E0
:100CC000154A934208D101218020FFF77BFF0021C4
:100CD0008020FFF777FF0DE07B68104A934209D12F
:100CE00001214FF48070FFF76DFF00214FF48070F9
:100CF000FFF768FF00BF0837BD4680BD0000024017
:100D00000004024000080240000C024000100240B3
:100D10000014024000180240001C02400020024063
:100D200080B487B000AF7860396000237B61002316
:100D30003B610023FB6000237B6176E001227B693D
:100D400002FA03F33B613B681A683B691340FB609E
:100D5000FA683B699A4265D17B681A687B695B00D7
:100D6000032101FA03F3DB431A407B681A607B68B6
:100D70001A683B681B7919467B695B0001FA03F32B
:100D80001A437B681A603B681B79012B03D03B68D0
:100D90001B79022B2ED17B689A687B695B0003214B
:100DA00001FA03F3DB431A407B689A607B689A6818
:100DB0003B685B7919467B695B0001FA03F31A43D0
:100DC0007B689A607B685A687B699BB219460123ED
:100DD0008B40DB431A407B685A607B685B683A68EB
:100DE000927911467A6992B201FA02F292B21A43EA
:100DF0007B685A607B68DA687B699BB25B00032181
:100E000001FA03F3DB431A407B68DA607B68DA6837
:100E10003B68DB7919467B695B0001FA03F31A43EF
:100E20007B68DA607B6901337B617B690F2B85D935
:100E300000BF1C37BD4680BC704780B485B000AF92
:100E400078600B467B800023FB737B681A697B8884
:100E50001340002B02D00123FB7301E00023FB733E
:100E6000FB7B18461437BD4680BC704780B483B006
:100E700000AF78600B467B807B687A881A8300BF5E
:100E80000C37BD4680BC704780B483B000AF78603B
:100E90000B467B807B687A885A8300BF0C37BD463F
:100EA00080BC704780B485B000AF78600B467B8013
:100EB00013467B700023FB600023BB607A787B883D
:100EC00003F007039B0002FA03F3FB607B88DB0857
:100ED0009BB218467B88DB089BB21A467B680832B7
:100EE00053F822207B8803F007039B000F2101FAAF
:100EF00003F3DB4302EA03017B6800F1080243F8D5
:100F000022107B88DB089BB21A467B68083253F8B4
:100F10002220FB681343BB607B88DB089BB21A4628
:100F20007B680832B96843F8221000BF1437BD4609
:100F300080BC704780B58AB000AF7860396000230C
:100F4000FB8400237B840423BB84574BFB617B68B9
:100F50009B88FB84FB8C23F03F03FB8407F10C038D
:100F60001846FFF74BFD7B69FB61FB694F4AA2FB0B
:100F700003239B0C7B84FA8C7B8C1343FB847B6860
:100F8000FA8C9A807B681B889BB223F001039AB28B
:100F90007B681A800023FB843B681B68444A9342A9
:100FA00015D83B681B685B00FA69B2FBF3F3BB849E
:100FB000BB8C032B01D80423BB84FA8CBB8C13435A
:100FC000FB847B8C01339AB27B681A8440E03B68D7
:100FD000DB884BF6FF72934209D13B681A681346CF
:100FE0005B001344FA69B2FBF3F3BB840EE03B6889
:100FF0001A6813469B0013449A001344FA69B2FB23
:10100000F3F3BB84BB8C43F48043BB84BB8CC3F33E
:101010000B03002B03D1BB8C43F00103BB84BA8CC0
:10102000FB8C13439BB26FEA43436FEA5343FB8449
:101030007B8C4FF4967202FB03F31E4A82FB031271
:101040009211DB17D31A9BB201339AB27B681A84D0
:101050007B68FA8C9A837B681B889BB243F0010300
:101060009AB27B681A807B681B88FB84FB8C23F414
:10107000816323F00203FB843B689A883B685B89A9
:1010800013439AB2FB8C1343FB847B68FA8C1A805F
:101090003B689A893B681B8913439AB27B681A8123
:1010A00000BF2837BD4680BD00127A0083DE1B4397
:1010B000A0860100D34D621080B483B000AF786089
:1010C0000B46FB70FB78002B08D07B681B889BB21B
:1010D00043F001039AB27B681A8007E07B681B88A3
:1010E0009BB223F001039AB27B681A8000BF0C37D1
:1010F000BD4680BC704780B483B000AF78600B46BB
:10110000FB70FB78002B08D07B681B889BB243F4F4
:1011100080739AB27B681A8007E07B681B889BB259
:1011200023F480739AB27B681A8000BF0C37BD46E7
:1011300080BC704780B483B000AF78600B46FB7012
:10114000FB78002B08D07B681B889BB243F40073AC
:101150009AB27B681A8007E07B681B889BB223F4F5
:1011600000739AB27B681A8000BF0C37BD4680BC02
:10117000704780B483B000AF78600B46FB701346B5
:10118000BB70BB78002B04D0FB7843F00103FB70ED
:1011900003E0FB7823F00103FB70FB789AB27B68D5
:1011A0001A8200BF0C37BD4680BC704780B483B044
:1011B00000AF78600B46FB70FB78002B08D07B6893
:1011C0001B889BB243F480639AB27B681A8007E065
:1011D0007B681B889BB223F480639AB27B681A8079
:1011E00000BF0C37BD4680BC704780B483B000AFF1
:1011F00078600B46FB70FB789AB27B681A8200BF5E
:101200000C37BD4680BC704780B483B000AF7860B7
:101210007B681B8A9BB2DBB218460C37BD4680BC8C
:10122000704780B487B000AF7860396000233B61BD
:101230000023FB600023BB600023FB757B689B8A57
:101240009BB2FB607B681B8B9BB2BB60BB681B04C3
:10125000BB60FA68BB68134323F07F433B613A6984
:101260003B681A403B689A4202D10123FB7501E0BA
:101270000023FB75FB7D18461C37BD4680BC7047BC
:1012800080B487B000AF786039600023FB7500231D
:101290003B610023FB607B68FB603B681B0F3B618D
:1012A0003B6823F07F433B603B69002B03D0FB6826
:1012B0001433FB6005E03B681B0C3B60FB68183394
:1012C000FB60FB681A683B681340002B02D00123C7
:1012D000FB7501E00023FB75FB7D18461C37BD46FE
:1012E00080BC70470000000090B482B000AF78600E
:1012F0007A6831A4D4E90034C2E900347A6830A4B1
:10130000D4E90034C2E902347A682FA4D4E9003465
:10131000C2E904347A684FF000034FF00004C2E9D8
:101320000C347A684FF000034FF00004C2E90E3429
:101330007A684FF000034FF00004C2E912347A6873
:101340004FF000034FF00004C2E910347A684FF008
:1013500000034FF00004C2E914347A684FF0000330
:101360004FF00004C2E916347A684FF000034FF0E2
:101370000004C2E918347A6813A4D4E90034C2E93D
:101380001A347A684FF000034FF00004C2E90634C3
:101390007A684FF000034FF00004C2E90A347A681B
:1013A0004FF000034FF00004C2E9083400BF0837D3
:1013B000BD4690BC704700BFFCA9F1D24D62503FC2
:1013C000FA7E6ABC7493683FB81E85EB51B89E3FA5
:1013D000B0B584B000AFF860C7E90023FB68D3E97B
:1013E00008341A462346D7E9080101F0D9FD03461F
:1013F0000C46FA68C2E90A34FB68D3E90645FB6883
:10140000D3E90A01D7E90A2301F07EFF02460B4621
:101410002046294601F0C6FD03460C46FA68C2E99B
:101420000634FB68D3E90C45FB68D3E91201D7E920
:101430000A2301F069FF02460B4610461946FB6875
:10144000D3E90E2301F0ACFD02460B4610461946C7
:10145000FB68D3E9102301F0A3FD02460B461046BA
:101460001946FB68D3E9002301F09CFD02460B46B8
:1014700010461946D7E90A2301F046FF02460B46FB
:101480002046294601F08EFD03460C46FA68C2E963
:101490000C34FB68D3E90E45FB68D3E91201D7E9A8
:1014A0000A2301F031FF02460B462046294601F08F
:1014B00077FD03460C46FA68C2E90E34FB68D3E9AF
:1014C0001045FB68D3E91201D7E90A2301F01CFF9C
:1014D00002460B462046294601F062FD03460C46B3
:1014E000FA68C2E91034FB68D3E91245FB68D3E916
:1014F0000201D7E90A2301F007FF02460B46204606
:10150000294601F04FFD03460C46FA68C2E9123441
:10151000FB68D3E90C01FB68D3E904341A4623467F
:1015200001F040FD03460C46FA68C2E91A34FB6834
:10153000D3E90C01FB68D3E91A341A46234602F0BA
:101540000DF803460C46FA68C2E91434FB68D3E987
:101550001001FB68D3E91A341A46234601F0FEFF56
:1015600003460C46FA68C2E91634FB68D3E9063430
:101570001A462346D7E9000101F012FD03460C4646
:10158000FA68C2E91834FB68D3E90645FB68D3E979
:101590001401FB68D3E9182301F0B6FE02460B469E
:1015A0002046294601F0FEFC03460C46FA68C2E9D3
:1015B0000634FB68D3E90845FB68D3E91601FB68EC
:1015C000D3E9182301F0A0FE02460B462046294627
:1015D00001F0E8FC03460C46FA68C2E90834FB68EF
:1015E000D3E90C45FB68D3E91401FB68D3E90C236C
:1015F00001F08AFE02460B462046294601F0D0FC47
:1016000003460C46FA68C2E90C34FB68D3E90E4580
:10161000FB68D3E91401FB68D3E90E2301F074FEE3
:1016200002460B462046294601F0BAFC03460C460A
:10163000FA68C2E90E34FB68D3E91045FB68D3E9C8
:101640001601FB68D3E90C2301F05EFE02460B464F
:101650002046294601F0A4FC03460C46FA68C2E97C
:101660001034FB68D3E91245FB68D3E91601FB6827
:10167000D3E90E2301F048FE02460B4620462946D8
:1016800001F08EFC03460C46FA68C2E91234FB688E
:10169000D3E90634184621461037BD46B0BD90B494
:1016A00084B000AFF860C7E90023FA68D7E90034D6
:1016B000C2E9063400BF1037BD4690BC704780B504
:1016C00000AF012000F08CF8002000F09AF8002014
:1016D00000F0A8F8002000F0B6F800BF80BD0000C0
:1016E00080B588B000AF42F21073FB600121022088
:1016F000FFF72CFA4FF480637B600123BB72012358
:101700003B720123FB7203237B723B1D19462B485E
:10171000FFF706FB4FF400637B600123BB720023DD
:101720003B720123FB7203237B723B1D1946234846
:10173000FFF7F6FA6423FB774FF400611F48FFF7C9
:101740007CFB0346FB7724E04FF400611B48FFF766
:1017500074FB0346FB774FF480611848FFF786FB64
:101760000023BB6102E0BB690133BB61BA69FB685E
:101770009A42F8DB4FF480611048FFF785FB0023A5
:101780007B6102E07B6901337B617A69FB689A4285
:10179000F8DBFB7F002BD7D00848FFF731FA002396
:1017A0003B6102E03B6901333B613A69FB689A4265
:1017B000F8DB00BF2037BD4680BD00BF00040240FB
:1017C00080B584B002AFFB1D00930723062275216C
:1017D000D02000F028F9FB7918460837BD4680BDB7
:1017E00080B584B002AF0346FB71FB7900930323FD
:1017F00002226B21D02000F08DF800BF0837BD46D3
:1018000080BD80B584B002AF0346FB71FB790093C5
:10181000022304221B21D02000F07CF800BF0837EF
:10182000BD4680BD80B584B002AF0346FB71FB7935
:101830000093022304221C21D02000F06BF800BF8B
:101840000837BD4680BD80B582B000AF0346FB714E
:10185000FB7906226B21D02000F0A9F800BF0837E1
:10186000BD4680BD80B588B000AF786007F1080143
:101870000E233B22D02000F0A7F90023FB611CE0DF
:10188000FB695B007A681344FA69520007F1200192
:101890000A4412F8182C120291B2FA69520001326D
:1018A00007F12000024412F8182C92B20A4492B2B6
:1018B00012B21A80FB690133FB61FB69022BDFDD89
:1018C0000423BB611FE0BB6903F10043013B5B00E4
:1018D0007A681344BA69520007F120010A4412F8E9
:1018E000182C120291B2BA695200013207F120009D
:1018F000024412F8182C92B20A4492B212B21A8020
:10190000BB690133BB61BB69062BDCDD00BF20373F
:10191000BD4680BD90B585B000AF0446084611466F
:101920001A462346FB710346BB710B467B71134677
:101930003B71BA7907F10E01F879012300F044F9FF
:101940003B79012202FA03F35A1E79793B79CB1ACB
:10195000013302FA03F3FB7397F8202079793B797E
:10196000CB1A013302FA03F387F8203097F82020CE
:10197000FB7B134087F8203097F90F30DB435AB2D6
:10198000BB7B5BB213405BB2DBB2BB73BA7B97F835
:1019900020301343DBB2BB73BA7907F10E01FB7938
:1019A000184600F0C3F800BF1437BD4690BD90B58F
:1019B00085B000AF0446084611461A462346FB711F
:1019C0000346BB710B467B7113463B71BA7907F135
:1019D0000F01F879012300F0F7F83B79002B0AD0CA
:1019E0007B79012202FA03F35AB2FB7B5BB2134309
:1019F0005BB2DBB20BE07B79012202FA03F35BB24C
:101A0000DB435AB2FB7B5BB213405BB2DBB2FB73CE
:101A1000BA7907F10F01FB79184600F087F800BF8B
:101A20001437BD4690BD90B585B000AF044608465A
:101A300011461A462346FB710346BB710B467B7168
:101A400013463B71BA7907F10E01F879012300F0D2
:101A5000BBF83B79012202FA03F35A1E79793B79EC
:101A6000CB1A013302FA03F3FB73BA7BFB7B1340FF
:101A7000DBB2BB73BB7B19467A793B79D31A01334E
:101A800041FA03F3DBB2BB73BA7B3B6A1A7000BF47
:101A90001437BD4690BD000080B586B000AF01216F
:101AA0000220FFF753F801214FF48000FFF76CF894
:101AB0004FF440633B600123BB7102233B71012360
:101AC000FB7103237B7104220A211548FFF7EAF911
:101AD00004220B211248FFF7E5F93B46194610484E
:101AE000FFF71EF90F4BBB600023BB814BF6FF7362
:101AF000FB81D0233B824FF480637B824FF4804391
:101B0000BB8207F1080319460748FFF713FA0121C2
:101B10000548FFF7D1FA00BF1837BD4680BD00BFAA
:101B200000040240A08601000058004080B582B049
:101B300000AF03463960FB711346BB7101211E489B
:101B4000FFF7D9FA00BF1D491B48FFF76AFB0346A0
:101B5000002BF8D0FB79002219461748FFF709FB44
:101B600000BF17491448FFF75CFB0346002BF8D071
:101B7000BB7919461048FFF738FB00BF11490E48E2
:101B8000FFF74FFB0346002BF8D03B681B78194644
:101B90000948FFF72AFB00BF0A490748FFF741FB46
:101BA0000346002BF8D001210348FFF7C3FA00BF1A
:101BB0000837BD4680BD00BF00580040010003004B
:101BC000820007008400070080B582B000AF396052
:101BD00011461A460346FB710B46BB711346BB8088
:101BE00000BF4FF400313B48FFF74AFB0346002B90
:101BF000F7D101213748FFF77EFA00BF3649354853
:101C0000FFF70FFB0346002BF8D0FB7900221946A3
:101C10003048FFF7AEFA00BF30492E48FFF701FB0E
:101C20000346002BF8D001212A48FFF745FABB797B
:101C300019462848FFF7D9FA00BF29492548FFF778
:101C4000F0FA0346002BF8D001212248FFF753FA9F
:101C500000BF21491F48FFF7E4FA0346002BF8D0E4
:101C6000FB79012219461B48FFF783FA00BF1D4983
:101C70001848FFF7D6FA0346002BF8D01EE0BB88C1
:101C8000012B07D100211348FFF790FA01211148D9
:101C9000FFF750FA14490F48FFF7C3FA0346002B29
:101CA0000CD00C48FFF7B0FA03461A463B681A708E
:101CB0003B6801333B60BB88013BBB80BB88002B8A
:101CC000DDD101210348FFF771FA00BF0837BD4697
:101CD00080BD00BF005800400100030082000700E3
:101CE00084000700020003004000030080B485B0B8
:101CF00000AF786039600023FB817B681B88FB8123
:101D00007B68284A934213D07B68274A93420FD0BE
:101D10007B68B3F1804F0BD07B68244A934207D095
:101D20007B68234A934203D07B68224A934208D1BE
:101D3000FB8923F07003FB813B685A88FB891343BE
:101D4000FB817B681C4A93420CD07B681B4A934200
:101D500008D0FB8923F44073FB813B681A89FB8917
:101D60001343FB817B68FA891A803B685A687B6859
:101D7000DA623B681A887B681A857B68094A934255
:101D800003D07B68084A934204D13B689B7A9AB29D
:101D90007B681A867B6801229A8200BF1437BD4691
:101DA00080BC704700000140000401400004004076
:101DB00000080040000C00400010004000140040EB
:101DC00080B483B000AF78600B46FB70FB78002BCB
:101DD00008D07B681B889BB243F001039AB27B68F2
:101DE0001A8007E07B681B889BB223F001039AB23C
:101DF0007B681A8000BF0C37BD4680BC704780B43A
:101E000083B000AF78600B467B8013467B707B7895
:101E1000002B08D07B689B899AB27B8813439AB2C7
:101E20007B689A8109E07B689B899AB27B88DB4357
:101E30009BB213409AB27B689A8100BF0C37BD46B3
:101E400080BC704780B485B000AF78600B467B8063
:101E50000023FB730023BB8100237B817B681B8AEB
:101E60009AB27B881340BB817B689B899AB27B883E
:101E700013407B81BB89002B05D07B89002B02D0CE
:101E80000123FB7301E00023FB73FB7B184614372F
:101E9000BD4680BC704780B483B000AF78600B460D
:101EA0007B807B88DB439AB27B681A8200BF0C3749
:101EB000BD4680BC704700002DE9F04120F0004590
:101EC000B5F1A14F0446064608DBB5F1FF4F6FDCC4
:101ED000002840F3A0806F48BDE8F0816E4B9D4222
:101EE00077DCB5F1445F68DB4FF0FF3721462046D1
:101EF00001F018FE0146804601F014FE67490546D0
:101F000001F010FE664901F005FD294601F00AFEC8
:101F1000644901F0FFFC294601F004FE624901F02A
:101F2000F9FC294601F0FEFD604901F0F3FC294669
:101F300001F0F8FD5E4901F0EDFC414601F0F2FDD3
:101F40005C498046284601F0EDFD5B4901F0E0FC6C
:101F5000294601F0E7FD594901F0DAFC294601F074
:101F6000E1FD574901F0D4FC294601F0DBFD55495C
:101F700001F0CEFC294601F0D5FD7B1C0146404610
:101F80004CD001F0C7FC214601F0CCFD4E4B4F4D2B
:101F900053F8271001F0BCFC214601F0B9FC0146C2
:101FA00055F8270001F0B4FC002E30DBBDE8F081CD
:101FB000014601F0AFFCBDE8F081454901F0AAFC03
:101FC0004FF07E5101F06AFF00288DD02046BDE819
:101FD000F08100F087F83F4B9D42044629DCA3F5D1
:101FE000D0039D4244DC014601F094FC4FF07E5149
:101FF00001F08EFC4FF080410546204601F08AFC3E
:102000000146284601F042FE002704466EE700F133
:102010000040BDE8F0813048BDE8F08101F07AFC75
:10202000214601F07FFD0146204601F071FCBDE82C
:10203000F0812A4B9D4214DC4FF07F5101F068FC87
:102040004FF07F510546204601F06CFD4FF07E5168
:1020500001F060FC0146284601F018FE0227044604
:1020600044E701461E4801F011FE032704463DE700
:102070004FF07E5101F04CFC4FF07E51054620465A
:1020800001F048FC0146284601F000FE0127044605
:102090002CE700BFDB0FC93FFFFFDF3ED769853C60
:1020A00059DA4B3D356B883D6E2EBA3D2549123EBF
:1020B000ABAAAA3E21A215BD6BF16E3D95879D3D51
:1020C000388EE33DCDCC4C3EF83E0008E83E00089B
:1020D000CAF24971FFFF973FDB0FC9BFFFFF1B40EB
:1020E000000080BF20F00040704700BF2DE9F04F96
:1020F0008BB004460D4600F0D5F9294B93F900A0AA
:10210000BAF1FF3F06460F4612D022462B46204624
:10211000294601F093FB834650B94FF000084FF079
:10212000000942464B462046294601F05FFB20B994
:10213000304639460BB0BDE8F08F1A4BCDF820B0D1
:102140000122CDE90445CDE902458DE80C00BAF144
:10215000000F17D042464B464046494601F0FEF973
:10216000BAF1020FCDE906010ED101F0B7FE21232D
:102170000360089B73B9DDE90667304639460BB04A
:10218000BDE8F08FCDE90689684600F00FFE002813
:10219000EFD1EAE701F0A2FE089B0360EBE700BF86
:1021A00014000020083F00082DE9F047DFF8F08216
:1021B0008AB005460C4600F031FA98F900707B1C95
:1021C000064631D02146204601F072FE824658BBB9
:1021D0002946284601F06CFE00218146002840F087
:1021E0009980284601F032FE10B30021204601F00C
:1021F0002DFE8246002854D0A34BCDF8209001221A
:1022000028468DE80C0001F02BF8CDE902012046AC
:1022100001F026F800220023CDE90401CDE90623D0
:10222000002F62D04FF07E5630460AB0BDE8F087EE
:10223000304600F047FE0746002800F08780002166
:10224000304601F003FE0028EED0284600F03AFEAA
:102250000028E9D0204600F035FE0028E4D0042311
:10226000894A0093284600230893019200F0F8FF62
:10227000CDE90201204600F0F3FF98F90030002478
:102280000025022BCDE90401CDE9064504D06846BE
:1022900000F08CFD00282ED101F020FE22230360E7
:1022A00029E0204600F00EFE0028BDD00021204687
:1022B00001F0D6FD0028B7D0734BCDF820A0012245
:1022C00028468DE80C0000F0CBFFCDE90201204646
:1022D00000F0C6FF98F90030CDE90401002B40F072
:1022E000928000220023CDE90623684600F05EFDBF
:1022F000002800F08380089B1BB101F0EFFD089BD4
:102300000360DDE9060101F0AFFA064630460AB087
:10231000BDE8F087204601F099FD002884D05A4B93
:10232000CDF820A0012228468DE80C0000F098FF8F
:10233000CDE90201204600F093FF544B0022022F0A
:10234000CDE90401CDE90623CFD16BE7284600F0A3
:10235000B9FD00283FF473AF204600F0B3FD00281C
:102360003FF46DAF3146304601F0A2FD002873D135
:10237000454B0890032228468DE80C0000F070FFC2
:10238000CDE90201204600F06BFF98F90060CDE92D
:1023900004012846002E3DD13D4B4FF06042002104
:1023A000CDE9062301F05CFD00283FF470AF204624
:1023B0004FF07C5101F0B6FB00F052FF04460D4691
:1023C00000F0F6FC02460B462046294601F004FACE
:1023D00000283ED12F4B98F900604FF06042CDE9C4
:1023E0000623022E7FF453AF56E71046194601F03C
:1023F000B5F8022CCDE906017FF477AF01F06EFD50
:102400002123036077E724490020022BCDE9060150
:10241000F4D06AE7214B00220021CDE9062301F028
:102420001FFD0028DDD020464FF07C5101F07AFBE3
:1024300000F016FF04460D4600F0BAFC02460B46BB
:102440002046294601F0C8F918B9134B0022CDE9FE
:10245000062398F90060C4E70B4B08970122284631
:102460008DE80C0000F0FCFECDE90201204600F0F2
:10247000F7FE98F90040CDE9040100220023002C6A
:10248000B3D1CDE9062330E7103F00080000F03F4C
:10249000FFFFEF47FFFFEFC70000F0FF0000F07FF6
:1024A000140000202DE9F8435B4F8F4305460C468E
:1024B00000F0928000290B4602466FDD0F157BD09D
:1024C000A7F2FF37C3F31303F80743F480135CD478
:1024D00003EBD27100260B447F105200B646162043
:1024E0004FF400110EEB01049C424FEAD2754FEA03
:1024F000420203DC1B1B04EB010E0E44013805EB0A
:1025000043034FEA5101EDD1844620244FF00041AE
:1025100009E020D003EBD275013C4FEA51012B4476
:102520004FEA420220D0734501EB0C05F1DD002D8E
:1025300005EB010C09DBF0469542A3EB0E0300D935
:10254000013B521B0844C646E4E7BCF1000FF2DB36
:102550000EF10108F0E79542DCD8002D05EB010CE7
:1025600044DB98460023ECE7134313D14008731073
:1025700003F17F5303F50013F20703EB075948BF3C
:1025800040F000404946BDE8F8835B0003EBD2739E
:1025900052009DE7411C2DD00130E7E7064621F0AF
:1025A00000473E43EFD069BB0F46D30A153F5205A3
:1025B000002BFAD0DE0220D4002400E004465B00A9
:1025C000DD0204F10100F9D5C0F1200122FA01F188
:1025D0000B433F1B824073E702460B4600F094FE1C
:1025E0002A46234600F0DEFCBDE8F883BCF1000F6C
:1025F000AEDAB6E701362046B9E7002020214FF0D9
:10260000FF34E3E702460B4600F0CAFC02460B46E5
:1026100000F0A4FFB7E700BF0000F07F2DE9F04F06
:1026200031F0004987B011D020F0004ABAF1FF4FD5
:10263000054605DD4F4807B0BDE8F04F00F04ABC45
:10264000B9F1FF4F07DDBAF17E5FF3D14FF07E5055
:1026500007B0BDE8F08F00280C4647DB0026B9F133
:10266000FF4F3BD0B9F17E5F80460F4651D0B4F1A9
:10267000804F67D0B4F17C5F1BD0FFF733FDBAF118
:10268000FF4F4ED0BAF1000F4BD0BAF17E5F48D069
:10269000ED0F013D56EA050364D0B9F19A4F6DDDA7
:1026A000354B9A4500F35D82002CC0F26082002019
:1026B000CEE7002D4ADAFFF715FDBAF1FF4F02D041
:1026C000BAF1000FE1D1AAF17E5A5AEA060342D0CC
:1026D000012EBDD100F100410846B9E7BAF17E5F95
:1026E000B4D02ADD002CE2DB0846B1E7B9F1974F00
:1026F00021DAB9F17E5F0ADB4FEAE953C3F19603B1
:1027000049FA03F202FA03F3994500F02582002604
:10271000A8E7002C9CDA01464FF07E5001F0B6FA93
:1027200096E7002C04DA01464FF07E5001F0AEFA35
:10273000002D8DDAC7E7022691E7002CB7DA01F108
:10274000004085E7014601F0EDF981E707B0BDE8FB
:10275000F04F00F0D7BA014601F0DAF8014601F077
:1027600095FA75E74146404601F0D2F8014601F07E
:102770008DFA6DE7143F0008F7FF7F3FBAF5000FB1
:1027800080F202824FF0974101F0CCF96FF017010F
:1027900082464FEAEA53B54ACAF3160A7F3B0B4416
:1027A0009245194602934AF07E5840F3E581B04BBA
:1027B0009A4540F33D820023184600930B460133AF
:1027C0004FF07E520293A8F5000803904FF00009E5
:1027D00011464046019201F09BF8019A059211467C
:1027E00083464046CDF8048001F094F801464FF04E
:1027F0007E5001F04BFA01460490584601F092F9E0
:102800004FEA680848F0005808F58028C84420F4CA
:102810007F6929F00F0982464146484601F082F956
:102820000146584601F074F8059A83461146404621
:1028300001F06EF80146019801F06AF8494601F08E
:1028400071F90146584601F063F8049B194601F0FE
:1028500069F951460190504601F064F98549804676
:1028600001F060F9844901F055F8414601F05AF948
:10287000824901F04FF8414601F054F9804901F0D6
:1028800049F8414601F04EF97E4901F043F84146CE
:1028900001F048F97C4901F03DF841468346404645
:1028A00001F040F90146584601F03CF95146804696
:1028B000484601F02FF8019901F034F9414601F042
:1028C00029F849468346484601F02CF96F4904909F
:1028D00001F020F8594601F01DF820F47F6828F037
:1028E0000F084146484601F01DF9684981464046B7
:1028F00001F00EF8049B194601F00AF8014658460B
:1029000001F006F8514601F00DF901998246404662
:1029100001F008F90146504600F0FCFF83460146ED
:10292000484600F0F7FF20F47F6828F00F08404683
:10293000574901F0F7F849468246404600F0E8FF63
:102940000146584600F0E4FF524901F0EBF85249C5
:102950008146404601F0E6F80146484600F0DAFFBD
:10296000039900F0D7FF8046029801F087F84146AE
:102970008146504600F0CEFF009900F0CBFF49465B
:1029800000F0C8FF20F47F6B2BF00F0B4946584630
:1029900000F0BEFF009900F0BBFF514600F0B8FF09
:1029A0000146404600F0B4FF24F47F64013E24F069
:1029B0000F0456EA050380462146384614BF4FF0FF
:1029C0007E56364E00F0A4FF594601F0ABF839466A
:1029D0000546404601F0A6F80146284600F09AFF59
:1029E00021460746584601F09DF880460146384684
:1029F00000F090FF00288146044620F00045C246C2
:102A000040F30081B5F1864F00F3CE8000F0BE8028
:102A1000B5F17C5F00F3D0800025A94624F47F64E3
:102A200024F00F0420461E4901F07CF851468046F0
:102A3000204600F06DFF0146384600F069FF194955
:102A400001F070F818490746204601F06BF801467E
:102A5000384600F05FFF07460146404600F05AFF47
:102A60004146044600F054FF20E000BF71C41C0042
:102A7000D6B35D0042F1533E55326C3E05A38B3E0A
:102A8000ABAAAA3EB76DDB3E9A99193F00004040C1
:102A90000038763F4F38763FA0C39D36000080BF98
:102AA0000072313F1872313F8CBEBF350146384647
:102AB00000F02EFF21468046204601F033F8804981
:102AC000074601F02FF87F4900F022FF394601F058
:102AD00029F87D4900F01EFF394601F023F87B49B3
:102AE00000F016FF394601F01DF8794900F012FF99
:102AF000394601F017F80146204600F009FF074665
:102B00000146204601F00EF84FF0804182463846DB
:102B100000F0FEFE0146504601F0B8F84146074677
:102B2000204600F0FFFF414600F0F4FE0146384623
:102B300000F0EEFE214600F0EBFE01464FF07E5025
:102B400000F0E6FE4319B3F5000FC0F2B580184659
:102B5000314600F0E7FF7BE502F00102C2F1020618
:102B600080E55C4B9A456CDD002C7FF7A0AD5A499F
:102B7000084600F0D7FF6BE5002300934FF07E522C
:102B800003934FF0000923E6002102E6534938463B
:102B900000F0C0FE41468246484600F0B9FE0146BC
:102BA000504601F07BF938B130464B4900F0BAFF8E
:102BB000494900F0B7FF4BE5ED154FF400037E3DAA
:102BC00043FA05F52B19C3F3C7524549C3F3160958
:102BD0007F3A114149F40009C2F1170249FA02F99A
:102BE000002C23EA01014046B8BFC9F1000900F0FA
:102BF0008FFE01468246384600F08CFE4FEAC955EA
:102C000004460BE7374B9D420ADC7FF401AF414697
:102C100000F07EFE0146384601F02CF90028CBD0AA
:102C20003046314900F07EFF2F4900F07BFF0FE571
:102C30002E4B00932E4B03934FF07F524FF400190D
:102C4000C6E54FF07E5100F063FE2A49804600F051
:102C500069FF29498146404600F064FF4FF07A51F0
:102C60008246404600F05EFF0146244800F050FED8
:102C7000414600F057FF01464FF07C5000F048FEFF
:102C800041468346404600F04DFF0146584600F05D
:102C900049FF1B4900F046FF0146504600F038FE50
:102CA00001468046484600F035FE20F47F6B2BF04D
:102CB0000F0B4946584671E6494600F00FF947E7C1
:102CC0004CBB31330EEADD3555B38A38610B363BE8
:102CD000ABAA2A3E0700803FCAF249713CAA3833AA
:102CE000FFFF7F00000016436042A20D00C0153FA9
:102CF000DCCFD13500AAB83F70A5EC36ABAAAA3E0E
:102D00003BAAB83F20F00042B2F1FF4FF8B50446AD
:102D10002ED262B3002803463DDBB2F5000F4FEA26
:102D2000E0502CD37F38C3F3160343F40003C207EB
:102D300048BF5B00002647105B00314619244FF066
:102D400080728D189D4202DC5B1BA9181644013C61
:102D50004FEA43034FEA5202F3D113B1013626F092
:102D60000106701000F17C5000EBC750F8BDF8BDB3
:102D7000014600F0D7FE214600F0CCFDF8BD14F46A
:102D8000000201D00EE00A465B001C0202F10101C4
:102D9000F9D5801AC6E7014600F0BAFD014600F0F9
:102DA00075FFF8BD4FF0FF32F3E700BF002070471A
:102DB000F0B5C1F30A5EAEF2FF36132E83B00246C1
:102DC0000B460C464FEAD17507462EDC002E49DB38
:102DD0003A49314103EA010010432BD049080B4026
:102DE00053EA02070CD04FF48023132E24EA01018A
:102DF00043FA06F444EA01040CBF4FF000470027F1
:102E00002F4B03EBC5052146D5E900453846224640
:102E10002B4600F0C7F8CDE9000122462B46DDE93C
:102E2000000100F0BDF803B0F0BD332E06DDB6F5AD
:102E3000806F40D01046194603B0F0BDAEF2134E7D
:102E40004FF0FF3121FA0EF10842F3D04908084251
:102E5000D6D04FF0804320EA010143FA0EFE4EEA3D
:102E60000107CDE721F000410143E3D0C3F3130193
:102E7000134E0143C1F1000C06EBC506D6E900670D
:102E80004CEA010C4FEA1C3C5C0C64040CF400237B
:102E900043EA040132463B4600F084F8CDE90001E4
:102EA00032463B46DDE9000100F07AF821F00044AB
:102EB00044EAC571C0E700F075F8BDE7FFFF0F00F9
:102EC000183F000820F00040B0F1FF4FACBF0020D9
:102ED00001207047004870470000C07F30F000427A
:102EE00038B5034616D0B2F1FF4F0FD2B2F5000F3E
:102EF0000D4610D30446D00D2844FE282EDC0028B1
:102F00001DDD24F0FF4444EAC05038BD014600F006
:102F100001FD38BD38BD4FF0984100F003FE184A5E
:102F20009542034607DB0446C0F3C7501938E3E770
:102F3000144800F02BF8134900F0F4FD38BD10F1EF
:102F4000160F13DA4CF2503295421946F0DD0E4856
:102F500000F01CF80C4900F0E5FD38BD19460A48A0
:102F600000F014F8084900F0DDFD38BD24F0FF44FE
:102F7000193044EAC0504FF04C5100F0D3FD38BD39
:102F8000B03CFFFF6042A20DCAF2497101F000415E
:102F900020F000400843704781F0004102E000BF8C
:102FA00083F0004330B54FEA41044FEA430594EA09
:102FB000050F08BF90EA020F1FBF54EA000C55EA44
:102FC000020C7FEA645C7FEA655C00F0E2804FEA15
:102FD0005454D4EB5555B8BF6D420CDD2C4480EAF7
:102FE000020281EA030382EA000083EA010180EA27
:102FF000020281EA0303362D88BF30BD11F0004F75
:103000004FEA01314FF4801C4CEA113102D04042AA
:1030100061EB410113F0004F4FEA03334CEA1333E5
:1030200002D0524263EB430394EA050F00F0A780FD
:10303000A4F10104D5F1200E0DDB02FA0EFC22FAF8
:1030400005F2801841F1000103FA0EF2801843FAEC
:1030500005F359410EE0A5F120050EF1200E012ADD
:1030600003FA0EFC28BF4CF0020C43FA05F3C0181B
:1030700051EBE37101F0004507D54FF0000EDCF194
:10308000000C7EEB00006EEB0101B1F5801F1BD33D
:10309000B1F5001F0CD349085FEA30004FEA3C0C41
:1030A00004F101044FEA445212F5800F80F09A8037
:1030B000BCF1004F08BF5FEA500C50F1000041EB3B
:1030C000045141EA050130BD5FEA4C0C404141EB3F
:1030D000010111F4801FA4F10104E9D191F0000F66
:1030E00004BF01460020B1FA81F308BF2033A3F1E9
:1030F0000B03B3F120020CDA0C3208DD02F1140CE0
:10310000C2F10C0201FA0CF021FA02F10CE002F11A
:103110001402D8BFC2F1200C01FA02F120FA0CFC13
:10312000DCBF41EA0C019040E41AA2BF01EB04515C
:10313000294330BD6FEA04041F3C1CDA0C340EDC5A
:1031400004F11404C4F1200220FA04F001FA02F39D
:1031500040EA030021FA04F345EA030130BDC4F15B
:103160000C04C4F1200220FA02F001FA04F340EA50
:103170000300294630BD21FA04F0294630BD94F001
:10318000000F83F4801306BF81F480110134013DE8
:103190004EE77FEA645C18BF7FEA655C29D094EA59
:1031A000050F08BF90EA020F05D054EA000C04BFD7
:1031B0001946104630BD91EA030F1EBF00210020C2
:1031C00030BD5FEA545C05D14000494128BF41F061
:1031D000004130BD14F580043CBF01F5801130BDC5
:1031E00001F0004545F0FE4141F470014FF0000050
:1031F00030BD7FEA645C1ABF194610467FEA655C01
:103200001CBF0B46024650EA013406BF52EA0335A2
:1032100091EA030F41F4002130BD00BF90F0000F90
:1032200004BF0021704730B54FF4806404F13204CC
:103230004FF000054FF0000150E700BF90F0000F85
:1032400004BF0021704730B54FF4806404F13204AC
:1032500010F0004548BF40424FF000013EE700BF7C
:1032600042004FEAE2014FEA31014FEA02701FBF0C
:1032700012F07F4393F07F4F81F06051704792F0DE
:10328000000F14BF93F07F4F704730B54FF4607458
:1032900001F0004521F0004120E700BF50EA0102A3
:1032A00008BF704730B54FF000050AE050EA010250
:1032B00008BF704730B511F0004502D5404261EBC0
:1032C00041014FF4806404F132045FEA915C3FF401
:1032D000DCAE4FF003025FEADC0C18BF03325FEA9A
:1032E000DC0C18BF033202EBDC02C2F1200300FA4F
:1032F00003FC20FA02F001FA03FE40EA0E0021FA74
:1033000002F11444C1E600BF70B54FF0FF0C4CF45D
:10331000E06C1CEA11541DBF1CEA135594EA0C0F13
:1033200095EA0C0F00F0DEF82C4481EA030621EA4E
:103330004C5123EA4C5350EA013518BF52EA033589
:1033400041F4801143F4801338D0A0FB02CE4FF03B
:103350000005E1FB02E506F00042E0FB03E54FF06B
:103360000006E1FB03569CF0000F18BF4EF0010E63
:10337000A4F1FF04B6F5007F64F5407404D25FEA5F
:103380004E0E6D4146EB060642EAC62141EA555112
:103390004FEAC52040EA5E504FEACE2EB4F1FD0C54
:1033A00088BFBCF5E06F1ED8BEF1004F08BF5FEAD2
:1033B000500E50F1000041EB045170BD06F0004684
:1033C00046EA010140EA020081EA0301B4EB5C0431
:1033D000C2BFD4EB0C0541EA045170BD41F4801129
:1033E0004FF0000E013C00F3AB8014F1360FDEBF4E
:1033F000002001F0004170BDC4F10004203C35DA2A
:103400000C341BDC04F11404C4F1200500FA05F3AC
:1034100020FA04F001FA05F240EA020001F000424D
:1034200021F0004110EBD37021FA04F642EB0601C3
:103430005EEA430E08BF20EAD37070BDC4F10C04ED
:10344000C4F1200500FA04F320FA05F001FA04F2B1
:1034500040EA020001F0004110EBD37041F100019D
:103460005EEA430E08BF20EAD37070BDC4F12005A8
:1034700000FA05F24EEA020E20FA04F301FA05F210
:1034800043EA020321FA04F001F0004121FA04F2B8
:1034900020EA020000EBD3705EEA430E08BF20EA88
:1034A000D37070BD94F0000F0FD101F000464000C2
:1034B00041EB010111F4801F08BF013CF7D041EA44
:1034C000060195F0000F18BF704703F00046520048
:1034D00043EB030313F4801F08BF013DF7D043EA19
:1034E0000603704794EA0C0F0CEA135518BF95EACF
:1034F0000C0F0CD050EA410618BF52EA4306D1D156
:1035000081EA030101F000414FF0000070BD50EA74
:10351000410606BF1046194652EA430619D094EAFE
:103520000C0F02D150EA013613D195EA0C0F05D1E8
:1035300052EA03361CBF104619460AD181EA03013C
:1035400001F0004141F0FE4141F470014FF00000F4
:1035500070BD41F0FE4141F4780170BD70B54FF08F
:10356000FF0C4CF4E06C1CEA11541DBF1CEA13550F
:1035700094EA0C0F95EA0C0F00F0A7F8A4EB0504F1
:1035800081EA030E52EA03354FEA013100F08880E8
:103590004FEA03334FF0805545EA131343EA1263B1
:1035A0004FEA022245EA111545EA10654FEA002666
:1035B0000EF000419D4208BF964244F1FD0404F51F
:1035C000407402D25B084FEA3202B61A65EB03057B
:1035D0005B084FEA32024FF480104FF4002CB6EB38
:1035E000020E75EB030E22BFB61A754640EA0C00B8
:1035F0005B084FEA3202B6EB020E75EB030E22BFF8
:10360000B61A754640EA5C005B084FEA3202B6EB38
:10361000020E75EB030E22BFB61A754640EA9C00F7
:103620005B084FEA3202B6EB020E75EB030E22BFC7
:10363000B61A754640EADC0055EA060E18D04FEA85
:10364000051545EA16754FEA06164FEAC30343EA25
:1036500052734FEAC2025FEA1C1CC0D111F4801FF2
:103660000BD141EA00014FF000004FF0004CB6E7EB
:1036700011F4801F04BF01430020B4F1FD0C88BF8A
:10368000BCF5E06F3FF6AFAEB5EB030C04BFB6EB95
:10369000020C5FEA500C50F1000041EB045170BD88
:1036A0000EF0004E4EEA113114EB5C04C2BFD4EBB5
:1036B0000C0541EA045170BD41F480114FF0000E39
:1036C000013C90E645EA060E8DE60CEA135594EAB5
:1036D0000C0F08BF95EA0C0F3FF43BAF94EA0C0FB8
:1036E0000AD150EA01347FF434AF95EA0C0F7FF42D
:1036F00025AF104619462CE795EA0C0F06D152EA81
:1037000003353FF4FDAE1046194622E750EA410664
:1037100018BF52EA43067FF4C5AE50EA41047FF475
:103720000DAF52EA43057FF4EBAE12E74FF0FF3CDA
:1037300006E000BF4FF0010C02E000BF4FF0010CAB
:103740004DF804CD4FEA410C7FEA6C5C4FEA430C24
:1037500018BF7FEA6C5C1BD001B050EA410C0CBF73
:1037600052EA430C91EA030F02BF90EA020F0020D5
:10377000704710F1000F91EA030F58BF994208BF3C
:1037800090422CBFD8176FEAE37040F001007047F9
:103790004FEA410C7FEA6C5C02D150EA013C07D150
:1037A0004FEA430C7FEA6C5CD6D152EA033CD3D09B
:1037B0005DF8040B704700BF8446104662468C4695
:1037C0001946634600E000BF01B5FFF7B7FF0028C8
:1037D00048BF10F1000F01BD4DF808EDFFF7F4FFF1
:1037E0000CBF012000205DF808FB00BF4DF808ED7C
:1037F000FFF7EAFF34BF012000205DF808FB00BF9F
:103800004DF808EDFFF7E0FF94BF012000205DF8C0
:1038100008FB00BF4DF808EDFFF7CEFF94BF012075
:1038200000205DF808FB00BF4DF808EDFFF7C4FF6E
:1038300034BF012000205DF808FB00BF4FEA410CB7
:103840007FEA6C5C02D150EA013C0AD14FEA430C9A
:103850007FEA6C5C02D152EA033C02D14FF00000D7
:1038600070474FF0010070474FEA4102B2F1E04368
:1038700024BFB3F5001CDCF1FE5C0DD901F0004C57
:103880004FEAC0024CEA5070B2F1004F40EB8300A7
:1038900008BF20F00100704711F0804F21D113F1D3
:1038A0003872BCBF01F00040704741F480114FEA0C
:1038B0005252C2F11802C2F1200C10FA0CF320FA95
:1038C00002F018BF40F001004FEAC1234FEAD323B2
:1038D00003FA0CFC40EA0C0023FA02F34FEA43031C
:1038E000CCE77FEA625307D150EA01331EBF4FF0A5
:1038F000FE4040F44000704701F0004040F0FE40C0
:1039000040F40000704700BF80F0004002E000BFBC
:1039100081F0004142001FBF5FEA410392EA030FBA
:103920007FEA226C7FEA236C6AD04FEA1262D2EB04
:103930001363C1BFD218414048404140B8BF5B4209
:10394000192B88BF704710F0004F40F4000020F0A2
:103950007F4018BF404211F0004F41F4000121F0B8
:103960007F4118BF494292EA030F3FD0A2F1010202
:1039700041FA03FC10EB0C00C3F1200301FA03F140
:1039800000F0004302D5494260EB4000B0F5000F63
:1039900013D3B0F1807F06D340084FEA310102F122
:1039A0000102FE2A51D2B1F1004F40EBC25008BFD4
:1039B00020F0010040EA03007047490040EB00009E
:1039C00010F4000FA2F10102EDD1B0FA80FCACF1CD
:1039D000080CB2EB0C0200FA0CF0AABF00EBC250CC
:1039E00052421843BCBFD0401843704792F0000FBA
:1039F00081F4000106BF80F400000132013BB5E70D
:103A00004FEA41037FEA226C18BF7FEA236C21D082
:103A100092EA030F04D092F0000F08BF08467047E7
:103A200090EA010F1CBF0020704712F07F4F04D1B5
:103A3000400028BF40F00040704712F100723CBFC8
:103A400000F50000704700F0004343F0FE4040F4F2
:103A5000000070477FEA226216BF08467FEA2363B0
:103A60000146420206BF5FEA412390EA010F40F49B
:103A7000800070474FF0000304E000BF10F00043E7
:103A800048BF40425FEA000C08BF704743F09643CE
:103A900001464FF000001CE050EA010208BF7047E9
:103AA0004FF000030AE000BF50EA010208BF704770
:103AB00011F0004302D5404261EB41015FEA010C85
:103AC00002BF84460146002043F0B64308BFA3F17D
:103AD0008053A3F50003BCFA8CF2083AA3EBC2535F
:103AE00010DB01FA02FC634400FA02FCC2F120027E
:103AF000BCF1004F20FA02F243EB020008BF20F0B5
:103B00000100704702F1200201FA02FCC2F120021A
:103B100050EA4C0021FA02F243EB020008BF20EA0F
:103B2000DC7070474FF0FF0C1CEAD0521EBF1CEA3D
:103B3000D15392EA0C0F93EA0C0F6FD01A4480EA2B
:103B4000010C400218BF5FEA41211ED04FF0006314
:103B500043EA501043EA5111A0FB01310CF0004040
:103B6000B1F5000F3EBF490041EAD3715B0040EA66
:103B7000010062F17F02FD2A1DD8B3F1004F40EB36
:103B8000C25008BF20F00100704790F0000F0CF009
:103B9000004C08BF49024CEA502040EA51207F3ACD
:103BA000C2BFD2F1FF0340EAC250704740F40000A8
:103BB0004FF00003013A5DDC12F1190FDCBF00F099
:103BC00000407047C2F10002410021FA02F1C2F147
:103BD000200200FA02FC5FEA310040F1000053EAE3
:103BE0004C0308BF20EADC70704792F0000F00F031
:103BF000004C02BF400010F4000F013AF9D040EA37
:103C00000C0093F0000F01F0004C02BF490011F4CA
:103C1000000F013BF9D041EA0C018FE70CEAD153C8
:103C200092EA0C0F18BF93EA0C0F0AD030F0004C48
:103C300018BF31F0004CD8D180EA010000F00040FC
:103C4000704790F0000F17BF90F0004F084691F0BA
:103C5000000F91F0004F14D092EA0C0F01D14202F4
:103C60000FD193EA0C0F03D14B0218BF084608D1BD
:103C700080EA010000F0004040F0FE4040F4000007
:103C8000704740F0FE4040F4400070474FF0FF0C9A
:103C90001CEAD0521EBF1CEAD15392EA0C0F93EAE1
:103CA0000C0F69D0A2EB030280EA010C49024FEA33
:103CB000402037D04FF0805343EA111143EA1013EC
:103CC0000CF000408B4238BF5B0042F17D024FF4A4
:103CD000000C8B4224BF5B1A40EA0C00B3EB510F7F
:103CE00024BFA3EB510340EA5C00B3EB910F24BF68
:103CF000A3EB910340EA9C00B3EBD10F24BFA3EBED
:103D0000D10340EADC001B0118BF5FEA1C1CE0D1B4
:103D1000FD2A3FF650AF8B4240EBC25008BF20F067
:103D2000010070470CF0004C4CEA50207F32C2BFBB
:103D3000D2F1FF0340EAC250704740F400004FF058
:103D40000003013A37E792F0000F00F0004C02BF89
:103D5000400010F4000F013AF9D040EA0C0093F053
:103D6000000F01F0004C02BF490011F4000F013BAD
:103D7000F9D041EA0C0195E70CEAD15392EA0C0F15
:103D800008D142027FF47DAF93EA0C0F7FF470AF4D
:103D9000084676E793EA0C0F04D14B023FF44CAF90
:103DA00008466EE730F0004C18BF31F0004CCAD125
:103DB00030F000427FF45CAF31F000437FF43CAF61
:103DC0005FE700BF4FF0FF3C06E000BF4FF0010C83
:103DD00002E000BF4FF0010C4DF804CD4FEA400265
:103DE0004FEA41037FEA226C18BF7FEA236C11D0AF
:103DF00001B052EA530C18BF90EA010F58BFB2EB62
:103E0000030088BFC81738BF6FEAE17018BF40F0E1
:103E1000010070477FEA226C02D15FEA402C05D195
:103E20007FEA236CE4D15FEA412CE1D05DF8040B1A
:103E3000704700BF844608466146FFE70FB5FFF7AD
:103E4000C9FF002848BF10F1000F0FBD4DF808ED65
:103E5000FFF7F4FF0CBF012000205DF808FB00BF56
:103E60004DF808EDFFF7EAFF34BF012000205DF8B0
:103E700008FB00BF4DF808EDFFF7E0FF94BF0120FD
:103E800000205DF808FB00BF4DF808EDFFF7D2FFFA
:103E900094BF012000205DF808FB00BF4DF808ED3D
:103EA000FFF7C8FF34BF012000205DF808FB00BF0A
:103EB0004FEA40024FEA41037FEA226C02D15FEAF7
:103EC000402C08D17FEA236C02D15FEA412C02D159
:103ED0004FF0000070474FF001007047014B186829
:103EE000704700BF180000203863ED3EDA0F493FED
:103EF0005E987B3FDA0FC93F6937AC3168212233C6
:103F0000B40F14336821A23373717274000000007F
:103F1000706F776600000000000000000000304372
:083F200000000000000030C3A6
:103F2800A00F0000000000000102030401020304C6
:103F3800060708090100000020000020000000001A
:103F4800000000000C03002074030020DC030020A4
:103F58000000000000000000000000000000000059
:103F68000000000000000000000000000000000049
:103F78000000000000000000000000000000000039
:103F88000000000000000000000000000000000029
:103F98000000000000000000000000000000000019
:103FA8000000000000000000000000000000000009
:103FB80000000000000000000000000000000000F9
:103FC80000000000000000000000000000000000E9
:103FD80000000000000000000000000000000000D9
:103FE80000000000000000000100000000000000C8
:103FF8000E33CDAB34126DE6ECDE05000B0000008D
:1040080000000000000000000000000000000000A8
:104018000000000000000000000000000000000098
:104028000000000000000000000000000000000088
:104038000000000000000000000000000000000078
:0400000508000000EF
:00000001FF
